{
  "contractName": "votting",
  "abi": [
    {
      "inputs": [],
      "stateMutability": "nonpayable",
      "type": "constructor"
    },
    {
      "anonymous": false,
      "inputs": [
        {
          "indexed": false,
          "internalType": "uint256",
          "name": "",
          "type": "uint256"
        },
        {
          "indexed": false,
          "internalType": "string",
          "name": "",
          "type": "string"
        },
        {
          "indexed": false,
          "internalType": "address",
          "name": "",
          "type": "address"
        }
      ],
      "name": "Candidate",
      "type": "event"
    },
    {
      "anonymous": false,
      "inputs": [
        {
          "indexed": false,
          "internalType": "uint256",
          "name": "",
          "type": "uint256"
        },
        {
          "indexed": false,
          "internalType": "address",
          "name": "",
          "type": "address"
        }
      ],
      "name": "Vote",
      "type": "event"
    },
    {
      "inputs": [
        {
          "internalType": "uint256",
          "name": "_id",
          "type": "uint256"
        },
        {
          "internalType": "string",
          "name": "_name",
          "type": "string"
        }
      ],
      "name": "addCandidate",
      "outputs": [
        {
          "internalType": "bool",
          "name": "",
          "type": "bool"
        }
      ],
      "stateMutability": "nonpayable",
      "type": "function"
    },
    {
      "inputs": [
        {
          "internalType": "uint256",
          "name": "_id",
          "type": "uint256"
        }
      ],
      "name": "getCandidateData",
      "outputs": [
        {
          "internalType": "uint256",
          "name": "",
          "type": "uint256"
        },
        {
          "internalType": "string",
          "name": "",
          "type": "string"
        },
        {
          "internalType": "uint256",
          "name": "",
          "type": "uint256"
        }
      ],
      "stateMutability": "view",
      "type": "function",
      "constant": true
    },
    {
      "inputs": [
        {
          "internalType": "uint256",
          "name": "_candidateId",
          "type": "uint256"
        }
      ],
      "name": "vote",
      "outputs": [
        {
          "internalType": "bool",
          "name": "",
          "type": "bool"
        }
      ],
      "stateMutability": "nonpayable",
      "type": "function"
    },
    {
      "inputs": [],
      "name": "result",
      "outputs": [
        {
          "internalType": "string",
          "name": "",
          "type": "string"
        }
      ],
      "stateMutability": "view",
      "type": "function",
      "constant": true
    }
  ],
  "bytecode": "0x608060405234801561001057600080fd5b50336000806101000a81548173ffffffffffffffffffffffffffffffffffffffff021916908373ffffffffffffffffffffffffffffffffffffffff160217905550610b25806100606000396000f3fe608060405234801561001057600080fd5b506004361061004c5760003560e01c80630121b93f146100515780631750a3d0146100975780636537214714610174578063bca50c4d146101f7575b600080fd5b61007d6004803603602081101561006757600080fd5b81019080803590602001909291905050506102ac565b604051808215151515815260200191505060405180910390f35b61015a600480360360408110156100ad57600080fd5b8101908080359060200190929190803590602001906401000000008111156100d457600080fd5b8201836020820111156100e657600080fd5b8035906020019184600183028401116401000000008311171561010857600080fd5b91908080601f016020809104026020016040519081016040528093929190818152602001838380828437600081840152601f19601f8201169050808301925050505050505091929192905050506104ea565b604051808215151515815260200191505060405180910390f35b61017c61076d565b6040518080602001828103825283818151815260200191508051906020019080838360005b838110156101bc5780820151818401526020810190506101a1565b50505050905090810190601f1680156101e95780820380516001836020036101000a031916815260200191505b509250505060405180910390f35b6102236004803603602081101561020d57600080fd5b8101908080359060200190929190505050610957565b6040518084815260200180602001838152602001828103825284818151815260200191508051906020019080838360005b8381101561026f578082015181840152602081019050610254565b50505050905090810190601f16801561029c5780820380516001836020036101000a031916815260200191505b5094505050505060405180910390f35b6000600360003373ffffffffffffffffffffffffffffffffffffffff1673ffffffffffffffffffffffffffffffffffffffff16815260200190815260200160002060009054906101000a900460ff161561036e576040517f08c379a00000000000000000000000000000000000000000000000000000000081526004018080602001828103825260168152602001807f796f75206861766520616c726561647920766f7465640000000000000000000081525060200191505060405180910390fd5b600260008381526020019081526020016000206000015482146103f9576040517f08c379a00000000000000000000000000000000000000000000000000000000081526004018080602001828103825260138152602001807f696e76616c69642063616e64696461746549640000000000000000000000000081525060200191505060405180910390fd5b6001600360003373ffffffffffffffffffffffffffffffffffffffff1673ffffffffffffffffffffffffffffffffffffffff16815260200190815260200160002060006101000a81548160ff021916908315150217905550600160026000848152602001908152602001600020600201600082825401925050819055507f10a412bf229fbac2408912cb271b8ff9eb39eb72da91dd0c8accab0fb10111358233604051808381526020018273ffffffffffffffffffffffffffffffffffffffff1673ffffffffffffffffffffffffffffffffffffffff1681526020019250505060405180910390a160019050919050565b60003373ffffffffffffffffffffffffffffffffffffffff166000809054906101000a900473ffffffffffffffffffffffffffffffffffffffff1673ffffffffffffffffffffffffffffffffffffffff16146105ae576040517f08c379a00000000000000000000000000000000000000000000000000000000081526004018080602001828103825260118152602001807f796f7520617265206e6f74206f776e657200000000000000000000000000000081525060200191505060405180910390fd5b600160405180606001604052808581526020018481526020016000815250908060018154018082558091505060019003906000526020600020906003020160009091909190915060008201518160000155602082015181600101908051906020019061061b929190610a4a565b50604082015181600201555050604051806060016040528084815260200183815260200160008152506002600085815260200190815260200160002060008201518160000155602082015181600101908051906020019061067d929190610a4a565b50604082015181600201559050507f42517c9f540a736e99e86611d33c0ebef1b4b7c1109e63ab98a6d4478c9d523a83833360405180848152602001806020018373ffffffffffffffffffffffffffffffffffffffff1673ffffffffffffffffffffffffffffffffffffffff168152602001828103825284818151815260200191508051906020019080838360005b8381101561072757808201518184015260208101905061070c565b50505050905090810190601f1680156107545780820380516001836020036101000a031916815260200191505b5094505050505060405180910390a16001905092915050565b606060008090505b6001805490508110156109525760006001828154811061079157fe5b9060005260206000209060030201600001549050600260006001808501815481106107b857fe5b906000526020600020906003020160000154815260200190815260200160002060020154600260008381526020019081526020016000206002015411156108b157600260008281526020019081526020016000206001018054600181600116156101000203166002900480601f0160208091040260200160405190810160405280929190818152602001828054600181600116156101000203166002900480156108a35780601f10610878576101008083540402835291602001916108a3565b820191906000526020600020905b81548152906001019060200180831161088657829003601f168201915b505050505092505050610954565b600260006001808501815481106108c457fe5b90600052602060002090600302016000015481526020019081526020016000206002015460026000838152602001908152602001600020600201541415610944576040518060400160405280600481526020017f647261770000000000000000000000000000000000000000000000000000000081525092505050610954565b508080600101915050610775565b505b90565b6000606060006002600085815260200190815260200160002060000154600260008681526020019081526020016000206001016002600087815260200190815260200160002060020154818054600181600116156101000203166002900480601f016020809104026020016040519081016040528092919081815260200182805460018160011615610100020316600290048015610a365780601f10610a0b57610100808354040283529160200191610a36565b820191906000526020600020905b815481529060010190602001808311610a1957829003601f168201915b505050505091509250925092509193909250565b828054600181600116156101000203166002900490600052602060002090601f016020900481019282601f10610a8b57805160ff1916838001178555610ab9565b82800160010185558215610ab9579182015b82811115610ab8578251825591602001919060010190610a9d565b5b509050610ac69190610aca565b5090565b610aec91905b80821115610ae8576000816000905550600101610ad0565b5090565b9056fea26469706673582212202044fe9dee92081655ca486829674face38ef82c34185f30bcd8b3046ea539eb64736f6c63430006010033",
  "source": "pragma solidity 0.6.1;\r\n\r\ncontract votting{\r\n    struct candidate{\r\n        uint id;\r\n        string name;\r\n        uint voted;\r\n    }\r\n\r\n    address private owner;\r\n    candidate[] Array;\r\n\r\n    event Candidate(uint, string,address);\r\n     \r\n    event Vote(uint,address);\r\n    \r\n    mapping(uint => candidate) candidates;\r\n\r\n    mapping(address => bool) voters;\r\n\r\n\r\n    modifier onlyOwner() {\r\n        require(owner == msg.sender,\"you are not owner\");\r\n        _;\r\n\r\n    }\r\n\r\n    constructor() public{\r\n        owner = msg.sender;\r\n    }\r\n\r\n    function addCandidate(uint _id,string memory _name) public onlyOwner returns(bool){\r\n        Array.push(candidate(_id,_name,0));\r\n        candidates[_id] = candidate(_id,_name,0);\r\n        emit Candidate(_id,_name,msg.sender);\r\n        return true;\r\n    }\r\n\r\n    function getCandidateData(uint _id) public view returns(uint,string memory, uint){\r\n        return (candidates[_id].id, candidates[_id].name, candidates[_id].voted); \r\n    }\r\n\r\n\r\n    function vote(uint _candidateId) public returns(bool){\r\n        require(!voters[msg.sender],\"you have already voted\");\r\n        require(_candidateId == candidates[_candidateId].id,\"invalid candidateId\");\r\n        \r\n        voters[msg.sender] = true;\r\n        candidates[_candidateId].voted += 1;\r\n\r\n        emit Vote(_candidateId,msg.sender);\r\n        return true;\r\n        \r\n    }\r\n\r\n    function result() public view returns(string memory){\r\n        for(uint i=0; i< Array.length; i++){\r\n            uint temp = Array[i].id;\r\n            if(candidates[temp].voted > candidates[Array[i+1].id].voted){\r\n                return candidates[temp].name;\r\n            }else if(candidates[temp].voted == candidates[Array[i+1].id].voted){\r\n                return \"draw\";\r\n            }\r\n        }\r\n        \r\n    }\r\n\r\n    \r\n\r\n}",
  "sourcePath": "E:\\Blockchain-Development\\votting-dapp\\contracts\\votting.sol",
  "compiler": {
    "name": "solc",
    "version": "0.6.1+commit.e6f7d5a4.Emscripten.clang"
  },
  "schemaVersion": "3.0.23",
  "updatedAt": "2020-03-08T13:16:43.797Z",
  "networkType": "ethereum",
  "devdoc": {
    "methods": {}
  },
  "userdoc": {
    "methods": {}
  }
}