{
  "contractName": "votting",
  "abi": [
    {
      "inputs": [],
      "stateMutability": "nonpayable",
      "type": "constructor"
    },
    {
      "anonymous": false,
      "inputs": [
        {
          "indexed": false,
          "internalType": "uint256",
          "name": "",
          "type": "uint256"
        },
        {
          "indexed": false,
          "internalType": "string",
          "name": "",
          "type": "string"
        }
      ],
      "name": "Candidate",
      "type": "event"
    },
    {
      "inputs": [
        {
          "internalType": "uint256",
          "name": "_id",
          "type": "uint256"
        },
        {
          "internalType": "string",
          "name": "_name",
          "type": "string"
        }
      ],
      "name": "addCandidate",
      "outputs": [
        {
          "internalType": "bool",
          "name": "",
          "type": "bool"
        }
      ],
      "stateMutability": "nonpayable",
      "type": "function"
    },
    {
      "inputs": [
        {
          "internalType": "uint256",
          "name": "_candidateId",
          "type": "uint256"
        }
      ],
      "name": "Vote",
      "outputs": [
        {
          "internalType": "bool",
          "name": "",
          "type": "bool"
        }
      ],
      "stateMutability": "nonpayable",
      "type": "function"
    },
    {
      "inputs": [],
      "name": "result",
      "outputs": [
        {
          "internalType": "string",
          "name": "",
          "type": "string"
        }
      ],
      "stateMutability": "view",
      "type": "function",
      "constant": true
    }
  ],
  "bytecode": "0x608060405234801561001057600080fd5b50336000806101000a81548173ffffffffffffffffffffffffffffffffffffffff021916908373ffffffffffffffffffffffffffffffffffffffff1602179055506108d3806100606000396000f3fe608060405234801561001057600080fd5b50600436106100415760003560e01c80631750a3d0146100465780636537214714610123578063dcd6a5cd146101a6575b600080fd5b6101096004803603604081101561005c57600080fd5b81019080803590602001909291908035906020019064010000000081111561008357600080fd5b82018360208201111561009557600080fd5b803590602001918460018302840111640100000000831117156100b757600080fd5b91908080601f016020809104026020016040519081016040528093929190818152602001838380828437600081840152601f19601f8201169050808301925050505050505091929192905050506101ec565b604051808215151515815260200191505060405180910390f35b61012b61043b565b6040518080602001828103825283818151815260200191508051906020019080838360005b8381101561016b578082015181840152602081019050610150565b50505050905090810190601f1680156101985780820380516001836020036101000a031916815260200191505b509250505060405180910390f35b6101d2600480360360208110156101bc57600080fd5b8101908080359060200190929190505050610625565b604051808215151515815260200191505060405180910390f35b60003373ffffffffffffffffffffffffffffffffffffffff166000809054906101000a900473ffffffffffffffffffffffffffffffffffffffff1673ffffffffffffffffffffffffffffffffffffffff16146102b0576040517f08c379a00000000000000000000000000000000000000000000000000000000081526004018080602001828103825260118152602001807f796f7520617265206e6f74206f776e657200000000000000000000000000000081525060200191505060405180910390fd5b600160405180606001604052808581526020018481526020016000815250908060018154018082558091505060019003906000526020600020906003020160009091909190915060008201518160000155602082015181600101908051906020019061031d9291906107f8565b50604082015181600201555050604051806060016040528084815260200183815260200160008152506002600085815260200190815260200160002060008201518160000155602082015181600101908051906020019061037f9291906107f8565b50604082015181600201559050507fc2d0c5b041ac2f386d0d18eb8073b26b92380343c92d7ca8a3fb4f07f646fdc483836040518083815260200180602001828103825283818151815260200191508051906020019080838360005b838110156103f65780820151818401526020810190506103db565b50505050905090810190601f1680156104235780820380516001836020036101000a031916815260200191505b50935050505060405180910390a16001905092915050565b606060008090505b6001805490508110156106205760006001828154811061045f57fe5b90600052602060002090600302016000015490506002600060018085018154811061048657fe5b9060005260206000209060030201600001548152602001908152602001600020600201546002600083815260200190815260200160002060020154111561057f57600260008281526020019081526020016000206001018054600181600116156101000203166002900480601f0160208091040260200160405190810160405280929190818152602001828054600181600116156101000203166002900480156105715780601f1061054657610100808354040283529160200191610571565b820191906000526020600020905b81548152906001019060200180831161055457829003601f168201915b505050505092505050610622565b6002600060018085018154811061059257fe5b90600052602060002090600302016000015481526020019081526020016000206002015460026000838152602001908152602001600020600201541415610612576040518060400160405280600481526020017f647261770000000000000000000000000000000000000000000000000000000081525092505050610622565b508080600101915050610443565b505b90565b6000600360003373ffffffffffffffffffffffffffffffffffffffff1673ffffffffffffffffffffffffffffffffffffffff16815260200190815260200160002060009054906101000a900460ff16156106e7576040517f08c379a00000000000000000000000000000000000000000000000000000000081526004018080602001828103825260168152602001807f796f75206861766520616c726561647920766f7465640000000000000000000081525060200191505060405180910390fd5b60026000838152602001908152602001600020600001548214610772576040517f08c379a00000000000000000000000000000000000000000000000000000000081526004018080602001828103825260138152602001807f696e76616c69642063616e64696461746549640000000000000000000000000081525060200191505060405180910390fd5b6001600360003373ffffffffffffffffffffffffffffffffffffffff1673ffffffffffffffffffffffffffffffffffffffff16815260200190815260200160002060006101000a81548160ff0219169083151502179055506001600260008481526020019081526020016000206002016000828254019250508190555060019050919050565b828054600181600116156101000203166002900490600052602060002090601f016020900481019282601f1061083957805160ff1916838001178555610867565b82800160010185558215610867579182015b8281111561086657825182559160200191906001019061084b565b5b5090506108749190610878565b5090565b61089a91905b8082111561089657600081600090555060010161087e565b5090565b9056fea26469706673582212202514a3fbacd49ead44cbf832da443931dc433c13f1c511eac199c605d753579a64736f6c63430006010033",
  "source": "pragma solidity 0.6.1;\r\n\r\ncontract votting{\r\n    struct candidate{\r\n        uint id;\r\n        string name;\r\n        uint voted;\r\n    }\r\n\r\n    address private owner;\r\n    candidate[] Array;\r\n\r\n    event Candidate(uint, string);\r\n    \r\n    mapping(uint => candidate) candidates;\r\n\r\n    mapping(address => bool) voters;\r\n\r\n\r\n    modifier onlyOwner() {\r\n        require(owner == msg.sender,\"you are not owner\");\r\n        _;\r\n\r\n    }\r\n\r\n    constructor() public{\r\n        owner = msg.sender;\r\n    }\r\n\r\n    function addCandidate(uint _id,string memory _name) public onlyOwner returns(bool){\r\n        Array.push(candidate(_id,_name,0));\r\n        candidates[_id] = candidate(_id,_name,0);\r\n        emit Candidate(_id,_name);\r\n        return true;\r\n    }\r\n\r\n    function Vote(uint _candidateId) public returns(bool){\r\n        require(!voters[msg.sender],\"you have already voted\");\r\n        require(_candidateId == candidates[_candidateId].id,\"invalid candidateId\");\r\n        \r\n        voters[msg.sender] = true;\r\n        candidates[_candidateId].voted += 1;\r\n        return true;\r\n        \r\n    }\r\n\r\n    function result() public view returns(string memory){\r\n        for(uint i=0; i< Array.length; i++){\r\n            uint temp = Array[i].id;\r\n            if(candidates[temp].voted > candidates[Array[i+1].id].voted){\r\n                return candidates[temp].name;\r\n            }else if(candidates[temp].voted == candidates[Array[i+1].id].voted){\r\n                return \"draw\";\r\n            }\r\n        }\r\n        \r\n    }\r\n\r\n    \r\n\r\n}",
  "sourcePath": "E:\\Blockchain-Development\\votting-dapp\\contracts\\votting.sol",
  "compiler": {
    "name": "solc",
    "version": "0.6.1+commit.e6f7d5a4.Emscripten.clang"
  },
  "schemaVersion": "3.0.23",
  "updatedAt": "2020-03-05T18:04:07.898Z",
  "networkType": "ethereum",
  "devdoc": {
    "methods": {}
  },
  "userdoc": {
    "methods": {}
  }
}