{
  "contractName": "votting",
  "abi": [
    {
      "inputs": [],
      "stateMutability": "nonpayable",
      "type": "constructor"
    },
    {
      "anonymous": false,
      "inputs": [
        {
          "indexed": false,
          "internalType": "uint256",
          "name": "",
          "type": "uint256"
        },
        {
          "indexed": false,
          "internalType": "string",
          "name": "",
          "type": "string"
        },
        {
          "indexed": false,
          "internalType": "address",
          "name": "",
          "type": "address"
        }
      ],
      "name": "Candidate",
      "type": "event"
    },
    {
      "anonymous": false,
      "inputs": [
        {
          "indexed": false,
          "internalType": "uint256",
          "name": "",
          "type": "uint256"
        },
        {
          "indexed": false,
          "internalType": "address",
          "name": "",
          "type": "address"
        }
      ],
      "name": "Vote",
      "type": "event"
    },
    {
      "inputs": [
        {
          "internalType": "uint256",
          "name": "_id",
          "type": "uint256"
        },
        {
          "internalType": "string",
          "name": "_name",
          "type": "string"
        }
      ],
      "name": "addCandidate",
      "outputs": [
        {
          "internalType": "bool",
          "name": "",
          "type": "bool"
        }
      ],
      "stateMutability": "nonpayable",
      "type": "function"
    },
    {
      "inputs": [
        {
          "internalType": "uint256",
          "name": "_candidateId",
          "type": "uint256"
        }
      ],
      "name": "vote",
      "outputs": [
        {
          "internalType": "bool",
          "name": "",
          "type": "bool"
        }
      ],
      "stateMutability": "nonpayable",
      "type": "function"
    },
    {
      "inputs": [],
      "name": "result",
      "outputs": [
        {
          "internalType": "string",
          "name": "",
          "type": "string"
        }
      ],
      "stateMutability": "view",
      "type": "function",
      "constant": true
    }
  ],
  "bytecode": "0x608060405234801561001057600080fd5b50336000806101000a81548173ffffffffffffffffffffffffffffffffffffffff021916908373ffffffffffffffffffffffffffffffffffffffff160217905550610972806100606000396000f3fe608060405234801561001057600080fd5b50600436106100415760003560e01c80630121b93f146100465780631750a3d01461008c5780636537214714610169575b600080fd5b6100726004803603602081101561005c57600080fd5b81019080803590602001909291905050506101ec565b604051808215151515815260200191505060405180910390f35b61014f600480360360408110156100a257600080fd5b8101908080359060200190929190803590602001906401000000008111156100c957600080fd5b8201836020820111156100db57600080fd5b803590602001918460018302840111640100000000831117156100fd57600080fd5b91908080601f016020809104026020016040519081016040528093929190818152602001838380828437600081840152601f19601f82011690508083019250505050505050919291929050505061042a565b604051808215151515815260200191505060405180910390f35b6101716106ad565b6040518080602001828103825283818151815260200191508051906020019080838360005b838110156101b1578082015181840152602081019050610196565b50505050905090810190601f1680156101de5780820380516001836020036101000a031916815260200191505b509250505060405180910390f35b6000600360003373ffffffffffffffffffffffffffffffffffffffff1673ffffffffffffffffffffffffffffffffffffffff16815260200190815260200160002060009054906101000a900460ff16156102ae576040517f08c379a00000000000000000000000000000000000000000000000000000000081526004018080602001828103825260168152602001807f796f75206861766520616c726561647920766f7465640000000000000000000081525060200191505060405180910390fd5b60026000838152602001908152602001600020600001548214610339576040517f08c379a00000000000000000000000000000000000000000000000000000000081526004018080602001828103825260138152602001807f696e76616c69642063616e64696461746549640000000000000000000000000081525060200191505060405180910390fd5b6001600360003373ffffffffffffffffffffffffffffffffffffffff1673ffffffffffffffffffffffffffffffffffffffff16815260200190815260200160002060006101000a81548160ff021916908315150217905550600160026000848152602001908152602001600020600201600082825401925050819055507f10a412bf229fbac2408912cb271b8ff9eb39eb72da91dd0c8accab0fb10111358233604051808381526020018273ffffffffffffffffffffffffffffffffffffffff1673ffffffffffffffffffffffffffffffffffffffff1681526020019250505060405180910390a160019050919050565b60003373ffffffffffffffffffffffffffffffffffffffff166000809054906101000a900473ffffffffffffffffffffffffffffffffffffffff1673ffffffffffffffffffffffffffffffffffffffff16146104ee576040517f08c379a00000000000000000000000000000000000000000000000000000000081526004018080602001828103825260118152602001807f796f7520617265206e6f74206f776e657200000000000000000000000000000081525060200191505060405180910390fd5b600160405180606001604052808581526020018481526020016000815250908060018154018082558091505060019003906000526020600020906003020160009091909190915060008201518160000155602082015181600101908051906020019061055b929190610897565b5060408201518160020155505060405180606001604052808481526020018381526020016000815250600260008581526020019081526020016000206000820151816000015560208201518160010190805190602001906105bd929190610897565b50604082015181600201559050507f42517c9f540a736e99e86611d33c0ebef1b4b7c1109e63ab98a6d4478c9d523a83833360405180848152602001806020018373ffffffffffffffffffffffffffffffffffffffff1673ffffffffffffffffffffffffffffffffffffffff168152602001828103825284818151815260200191508051906020019080838360005b8381101561066757808201518184015260208101905061064c565b50505050905090810190601f1680156106945780820380516001836020036101000a031916815260200191505b5094505050505060405180910390a16001905092915050565b606060008090505b600180549050811015610892576000600182815481106106d157fe5b9060005260206000209060030201600001549050600260006001808501815481106106f857fe5b906000526020600020906003020160000154815260200190815260200160002060020154600260008381526020019081526020016000206002015411156107f157600260008281526020019081526020016000206001018054600181600116156101000203166002900480601f0160208091040260200160405190810160405280929190818152602001828054600181600116156101000203166002900480156107e35780601f106107b8576101008083540402835291602001916107e3565b820191906000526020600020905b8154815290600101906020018083116107c657829003601f168201915b505050505092505050610894565b6002600060018085018154811061080457fe5b90600052602060002090600302016000015481526020019081526020016000206002015460026000838152602001908152602001600020600201541415610884576040518060400160405280600481526020017f647261770000000000000000000000000000000000000000000000000000000081525092505050610894565b5080806001019150506106b5565b505b90565b828054600181600116156101000203166002900490600052602060002090601f016020900481019282601f106108d857805160ff1916838001178555610906565b82800160010185558215610906579182015b828111156109055782518255916020019190600101906108ea565b5b5090506109139190610917565b5090565b61093991905b8082111561093557600081600090555060010161091d565b5090565b9056fea264697066735822122015f4ccc6fd4d6ed4dee18feaef2d5f79a500c869383c092f8f1585ae1dc66a1564736f6c63430006010033",
  "source": "pragma solidity 0.6.1;\r\n\r\ncontract votting{\r\n    struct candidate{\r\n        uint id;\r\n        string name;\r\n        uint voted;\r\n    }\r\n\r\n    address private owner;\r\n    candidate[] Array;\r\n\r\n    event Candidate(uint, string,address);\r\n     \r\n    event Vote(uint,address);\r\n    \r\n    mapping(uint => candidate) candidates;\r\n\r\n    mapping(address => bool) voters;\r\n\r\n\r\n    modifier onlyOwner() {\r\n        require(owner == msg.sender,\"you are not owner\");\r\n        _;\r\n\r\n    }\r\n\r\n    constructor() public{\r\n        owner = msg.sender;\r\n    }\r\n\r\n    function addCandidate(uint _id,string memory _name) public onlyOwner returns(bool){\r\n        Array.push(candidate(_id,_name,0));\r\n        candidates[_id] = candidate(_id,_name,0);\r\n        emit Candidate(_id,_name,msg.sender);\r\n        return true;\r\n    }\r\n\r\n    function vote(uint _candidateId) public returns(bool){\r\n        require(!voters[msg.sender],\"you have already voted\");\r\n        require(_candidateId == candidates[_candidateId].id,\"invalid candidateId\");\r\n        \r\n        voters[msg.sender] = true;\r\n        candidates[_candidateId].voted += 1;\r\n\r\n        emit Vote(_candidateId,msg.sender);\r\n        return true;\r\n        \r\n    }\r\n\r\n    function result() public view returns(string memory){\r\n        for(uint i=0; i< Array.length; i++){\r\n            uint temp = Array[i].id;\r\n            if(candidates[temp].voted > candidates[Array[i+1].id].voted){\r\n                return candidates[temp].name;\r\n            }else if(candidates[temp].voted == candidates[Array[i+1].id].voted){\r\n                return \"draw\";\r\n            }\r\n        }\r\n        \r\n    }\r\n\r\n    \r\n\r\n}",
  "sourcePath": "E:\\Blockchain-Development\\votting-dapp\\contracts\\votting.sol",
  "compiler": {
    "name": "solc",
    "version": "0.6.1+commit.e6f7d5a4.Emscripten.clang"
  },
  "schemaVersion": "3.0.23",
  "updatedAt": "2020-03-07T15:50:49.833Z",
  "networkType": "ethereum",
  "devdoc": {
    "methods": {}
  },
  "userdoc": {
    "methods": {}
  }
}